S00C00004C6162352E73726563D4
S11300000C942E000C94FE040C946A050C94D605F2
S11300100C9442060C94AE060C944B000C94E90C20
S11300200C944B000C94960C0C941A070C948607B1
S11300300C94F2070C945E080C94CA080C943609CC
S11300400C94A2090C940E0A0C947A0A0C94E60AF5
S11300500C94520B0C94BE0B0C942A0C11241FBE4E
S1130060CFEFD4E0DEBFCDBF11E0A0E0B1E0E0E02F
S1130070F2E202C005900D92AC31B107D9F724E049
S1130080ACE1B1E001C01D92AF36B207E1F70E94C6
S1130090D7030C94FE100C940000CF92DF92EF92E1
S11300A0FF920F931F93CF93DF93EC018C858130E4
S11300B011F18C8982608C8B9D85913011F188605F
S11300C08C8BC82ED12C0E811F8183E2E82E84E014
S11300D0F82E20E030E0A90160E070E0CB010E943E
S11300E0D90D1C8ADF91CF911F910F91FF90EF9052
S11300F0DF90CF9008958C8981608C8B9D859130A1
S1130100F1F684608C8BDDCFFC016189462F50E0D1
S1130110FA013496EE0FFF1FE80FF91F2081318199
S1130120232B99F421E030E061112BC0F9013496BE
S1130130EE0FFF1FE80FF91F20813181FC01121619
S1130140130614F5E40FF51F1486FC012089211110
S113015014C021E030E0662311F020E030E0F90122
S11301603496EE0FFF1FE80FF91F20813181232BF6
S1130170C1F0FC01E40FF51F148660E070E00C94FC
S11301804D0020E030E0D2CF232B91F42685378533
S1130190232B19F414861586138AFC012089211156
S11301A0ECCF21E0FC01208B60E070E00C944D006A
S11301B020892223F1F2E1CFCF92DF92EF92FF92D6
S11301C00F931F93CF93DF93EC01C884D9848FEFEF
S11301D0C81AD80AD986C8860C811D8189E5E82EFB
S11301E082E0F82E20E030E0A90160E070E0CB016D
S11301F00E94D90D8B89882349F0DF91CF911F91FB
S11302000F91FF90EF90DF90CF90089581E08B8B5A
S11302108C8785E0888B198A60E070E0CE01DF91DD
S1130220CF911F910F91FF90EF90DF90CF900C949E
S11302308400CF92DF92EF92FF920F931F93CF939C
S1130240DF93EC01CA84DB848FEFC81AD80ADB86FB
S1130250CA860C811D8189E6E82E82E0F82E20E012
S113026030E0A90160E070E0CB010E94D90D8B89D8
S1130270882349F0DF91CF911F910F91FF90EF9068
S1130280DF90CF90089581E08B8B8D8795E0988BDC
S1130290898B60E070E0CE01DF91CF911F910F91C7
S11302A0FF90EF90DF90CF900C948400FC012685A2
S11302B03785232BD1F441E0218921111AC0242F41
S11302C030E0F9013496EE0FFF1FE80FF91F60814B
S11302D07181161617064CF4FC01418BE20FF31FD3
S11302E041E0448725E0FC01208B60E070E00C9441
S11302F0840040E0E4CFCF92DF92EF92FF920F931D
S11303001F93CF93DF93EC01CE84DF8481E0C81A7E
S1130310D108DF86CE860C811D8181E6E82E82E03D
S1130320F82E20E030E0A90160E070E0CB010E94EB
S1130330D90D8E859F85892B49F0DF91CF911F912F
S11303400F91FF90EF90DF90CF90089560E070E000
S1130350CE01DF91CF911F910F91FF90EF90DF902D
S1130360CF900C945601CF92DF92EF92FF920F93AD
S11303701F93CF93DF93EC01888599850197998723
S1130380888788898150888BCE84DF848FEFC81A50
S1130390D80ADF86CE860C811D8181E6E82E82E0B4
S11303A0F82E20E030E0A90160E070E0CB010E946B
S11303B0D90DC884D9840C811D8199E5E92E92E078
S11303C0F92E20E030E0A90160E070E0CB010E944A
S11303D0D90DC12CD12C2BE7E22E21E0F22E8E0177
S11303E020E030E0A9016AE572E682E090E00E9434
S11303F0D90D60E070E0CE01DF91CF911F910F9194
S1130400FF90EF90DF90CF900C948400CF92DF9216
S1130410EF92FF920F931F93CF93DF93EC018A85A2
S11304209B8501979B878A8788898150888BCE8496
S1130430DF848FEFC81AD80ADF86CE860C811D812F
S113044081E6E82E82E0F82E20E030E0A90160E0A9
S113045070E0CB010E94D90DCA84DB840C811D811C
S113046099E6E92E92E0F92E20E030E0A90160E05F
S113047070E0CB010E94D90DC12CD12C2BE7E22EC8
S113048021E0F22E8E0120E030E0A9016AE572E657
S113049082E090E00E94D90D60E070E0CE01DF912F
S11304A0CF911F910F91FF90EF90DF90CF900C941C
S11304B08400072E000C880B990B40E050E00C944C
S11304C09B03072E000C880B990B42E050E00C9420
S11304D09B03072E000C880B990B44E050E00C940E
S11304E09B03CF93DF93EC018C81811104C00E94A4
S11304F08A0381E08C8340E050E060E070E0CB014F
S11305000E949B0342E050E060E070E0CB010E9457
S11305109B0344E050E060E070E0CB01DF91CF91B9
S11305200C949B03AF92BF92CF92DF92EF92FF9213
S11305300F931F93CF935C01C091C600C0FD45C0CB
S1130540C1FD31C0C2FD1DC0C3FF11C0F50104814E
S11305501581C12CD12C86E0E82E82E0F82E20E013
S113056030E0A90160E070E0CB010E94D90DCF9189
S11305701F910F91FF90EF90DF90CF90BF90AF90BD
S11305800895F50104811581C12CD12C99E1E92E3E
S113059091E0F92E20E030E0A90160E070E0CB01A9
S11305A00E94D90DD1CFF50104811581C12CD12C24
S11305B023EBE22E21E0F22E20E030E0A90160E0FE
S11305C070E0CB010E94D90DBDCFFC0104811581DF
S11305D0C12CD12C3CEDE32E30E0F32E20E030E0B2
S11305E0A90160E070E0CB010E94D90DA9CFCF92A0
S11305F0DF92EF92FF920F931F931092C50023E3B3
S11306002093C40028E92093C1002EE02093C20067
S1130610DC011496ED91FC91159704811581C12C90
S1130620D12C81E7E82E82E0F82E20E030E0A90109
S113063060E070E0CB010E94D90D1F910F91FF90F3
S1130640EF90DF90CF900895CF93DF93AB0141708B
S1130650507857FD54C077FD5AC075956795FB01D6
S1130660E451FF4F282F30E0205331092A3031055F
S113067008F042C08053A82FB0E0AA0FBB1FA85FA8
S1130680BE4F0D90BC91A02D440F551F440F551F14
S11306908FE090E0042E01C0880F0A94EAF7D82F67
S11306A0C82FC09560E070E086E09A2F9F7030817B
S11306B0232F042E01C0220F0A94EAF78223892BE8
S11306C0042E01C0880F0A94EAF78D2390819C239D
S11306D090839081892B8083B295A295AF70AB27CC
S11306E0BF70AB2735966F5F7F4F80E06430710534
S11306F0E1F6DF91CF910895A0E0B0E0C5CF41507D
S113070051094E6F5F6F4F5F5F4F77FFA6CF6F5FEB
S11307107F4FA3CFE1E6F0E080E88083108287EB8F
S11307208093E50087E08093E6008093E70080EC07
S11307308093E4000895CF92DF92EF92FF92CF93DB
S1130740DF936B017C01EA0146305105F4F02196F8
S1130750C630D1053CF0DF91CF91FF90EF90DF9050
S1130760CF900895C701B6012AE030E040E050E0A0
S11307700E947C10862FBE01805DDF91CF91FF9097
S1130780EF90DF90CF900C94240324E630E040E017
S113079050E00E947C102AE030E040E050E00E94EB
S11307A07C10BE0180E3820F0E942403D0CFCF933C
S11307B0DF93CDB7DEB7A5970FB6F894DEBF0FBEB3
S11307C0CDBF1AA219A21CA21BA21DA21D8E1C8E93
S11307D01F8E1E8E18A21A8219821C821B82CE01C1
S11307E04C969E838D83059698878F831A861986E7
S11307F01C861B861D861E86188A1F8685E0898BAB
S11308001A8A1B8A1C8A1D8A1F8A1E8A198E188EB0
S1130810CE0101969B8F8A8F48E062E972E045968B
S11308200E94461040E050E067EF72E0CE01469629
S11308300E946010A5960FB6F894DEBF0FBECDBF20
S1130840DF91CF910895FC0164836093C6000895FD
S1130850CF93DF9300D000D0CDB7DEB78FE092E026
S11308602FEE32E0FC0170979183808340968217CB
S11308709307C1F71092E0021092DF02EAE4F1E07C
S113088087E691E09183808384E891E0968F858F59
S1130890A1EAB1E0B3AFA2AF1D921C92FA83E9833F
S11308A0EBE4F3E0FC83EB8389819A8106960E9452
S11308B0BD108B819C81E981FA81978B868B918F06
S11308C0808F8BEC9FE0948F838F158214827D96AA
S11308D0FA83E983EB81FC81E05AFF4FFC83EB83CD
S11308E089819A818E5B9140F9F6E2EEF1E0118202
S11308F010821582148213821282E1E6F0E080E80D
S113090080831082109285001092840084E080938A
S1130910810081E080936F000F900F900F900F90F3
S1130920DF91CF910895CF93DF9300D0CDB7DEB799
S11309309A838983809100019091010106960E9417
S1130940BD10892B29F00F900F90DF91CF9108955E
S113095089819A81909301018093000161E070E0A4
S113096006960E94DD100F931F93CF93DF93E091BF
S11309702401F09125013097F1F0809104019091C8
S113098005010097C1F0C0910201D0910301AA8131
S1130990BB811097A9F046815781608571851696B1
S11309A00D911D912D913C911997401B510B620B98
S11309B0730B77FD05C0DF91CF911F910F910895BF
S11309C0FC01208131813093050120930401D183FE
S11309D0C0839093030180930201DF91CF911F9113
S11309E00F910C9493048FEF8093EC008093ED00AF
S11309F08093EE0081E083BF8895FDCF1F920F9214
S1130A000FB60F9211242F933F934F935F936F93DD
S1130A107F938F939F93AF93BF93EF93FF93209113
S1130A201C0130911D014091840050918500C90141
S1130A30032E000CAA0BBB0BDC019927882760E06E
S1130A4070E0842B952BA62BB72B80931E019093DB
S1130A501F01A0932001B0932101B09B1BC04091C2
S1130A60840050918500C9010196092E000CAA0B3F
S1130A70BB0BDC019927882760E070E0842B952B61
S1130A80A62BB72B80931E0190931F01A0932001E6
S1130A90B0932101E091BE01F091BF01309739F08C
S1130AA060E070E0809126019091270109950E94F1
S1130AB0B304FF91EF91BF91AF919F918F917F917B
S1130AC06F915F914F913F912F910F900FBE0F90B7
S1130AD01F9018951F920F920FB60F9211242F9307
S1130AE03F934F935F936F937F938F939F93AF93B2
S1130AF0BF93EF93FF9320911C0130911D0140910E
S1130B00840050918500C901032E000CAA0BBB0B75
S1130B10DC019927882760E070E0842B952BA62BB5
S1130B20B72B80931E0190931F01A0932001B093D3
S1130B302101B09B1BC04091840050918500C901E4
S1130B400196092E000CAA0BBB0BDC019927882700
S1130B5060E070E0842B952BA62BB72B80931E01AD
S1130B6090931F01A0932001B0932101E091C00153
S1130B70F091C101309739F061E070E08091280173
S1130B809091290109950E94B304FF91EF91BF91BF
S1130B90AF919F918F917F916F915F914F913F9111
S1130BA02F910F900FBE0F901F9018951F920F92C8
S1130BB00FB60F9211242F933F934F935F936F932C
S1130BC07F938F939F93AF93BF93EF93FF93209162
S1130BD01C0130911D014091840050918500C90190
S1130BE0032E000CAA0BBB0BDC019927882760E0BD
S1130BF070E0842B952BA62BB72B80931E0190932A
S1130C001F01A0932001B0932101B09B1BC0409110
S1130C10840050918500C9010196092E000CAA0B8D
S1130C20BB0BDC019927882760E070E0842B952BAF
S1130C30A62BB72B80931E0190931F01A093200134
S1130C40B0932101E091C201F091C301309739F0D2
S1130C5062E070E080912A0190912B0109950E9435
S1130C60B304FF91EF91BF91AF919F918F917F91C9
S1130C706F915F914F913F912F910F900FBE0F9005
S1130C801F9018951F920F920FB60F9211242F9355
S1130C903F934F935F936F937F938F939F93AF9300
S1130CA0BF93EF93FF9320911C0130911D0140915C
S1130CB0840050918500C901032E000CAA0BBB0BC4
S1130CC0DC019927882760E070E0842B952BA62B04
S1130CD0B72B80931E0190931F01A0932001B09322
S1130CE02101B09B1BC04091840050918500C90133
S1130CF00196092E000CAA0BBB0BDC01992788274F
S1130D0060E070E0842B952BA62BB72B80931E01FB
S1130D1090931F01A0932001B0932101E091C4019D
S1130D20F091C501309739F063E070E080912C01B7
S1130D3090912D0109950E94B304FF91EF91BF9109
S1130D40AF919F918F917F916F915F914F913F915F
S1130D502F910F900FBE0F901F9018951F920F9216
S1130D600FB60F9211242F933F934F935F936F937A
S1130D707F938F939F93AF93BF93EF93FF932091B0
S1130D801C0130911D014091840050918500C901DE
S1130D90032E000CAA0BBB0BDC019927882760E00B
S1130DA070E0842B952BA62BB72B80931E01909378
S1130DB01F01A0932001B0932101B09B1BC040915F
S1130DC0840050918500C9010196092E000CAA0BDC
S1130DD0BB0BDC019927882760E070E0842B952BFE
S1130DE0A62BB72B80931E0190931F01A093200183
S1130DF0B0932101E091C601F091C701309739F019
S1130E0064E070E080912E0190912F0109950E9479
S1130E10B304FF91EF91BF91AF919F918F917F9117
S1130E206F915F914F913F912F910F900FBE0F9053
S1130E301F9018951F920F920FB60F9211242F93A3
S1130E403F934F935F936F937F938F939F93AF934E
S1130E50BF93EF93FF9320911C0130911D014091AA
S1130E60840050918500C901032E000CAA0BBB0B12
S1130E70DC019927882760E070E0842B952BA62B52
S1130E80B72B80931E0190931F01A0932001B09370
S1130E902101B09B1BC04091840050918500C90181
S1130EA00196092E000CAA0BBB0BDC01992788279D
S1130EB060E070E0842B952BA62BB72B80931E014A
S1130EC090931F01A0932001B0932101E091C801E8
S1130ED0F091C901309739F065E070E080913001FC
S1130EE09091310109950E94B304FF91EF91BF9154
S1130EF0AF919F918F917F916F915F914F913F91AE
S1130F002F910F900FBE0F901F9018951F920F9264
S1130F100FB60F9211242F933F934F935F936F93C8
S1130F207F938F939F93AF93BF93EF93FF932091FE
S1130F301C0130911D014091840050918500C9012C
S1130F40032E000CAA0BBB0BDC019927882760E059
S1130F5070E0842B952BA62BB72B80931E019093C6
S1130F601F01A0932001B0932101B09B1BC04091AD
S1130F70840050918500C9010196092E000CAA0B2A
S1130F80BB0BDC019927882760E070E0842B952B4C
S1130F90A62BB72B80931E0190931F01A0932001D1
S1130FA0B0932101E091CA01F091CB01309739F05F
S1130FB066E070E0809132019091330109950E94BE
S1130FC0B304FF91EF91BF91AF919F918F917F9166
S1130FD06F915F914F913F912F910F900FBE0F90A2
S1130FE01F9018951F920F920FB60F9211242F93F2
S1130FF03F934F935F936F937F938F939F93AF939D
S1131000BF93EF93FF9320911C0130911D014091F8
S1131010840050918500C901032E000CAA0BBB0B60
S1131020DC019927882760E070E0842B952BA62BA0
S1131030B72B80931E0190931F01A0932001B093BE
S11310402101B09B1BC04091840050918500C901CF
S11310500196092E000CAA0BBB0BDC0199278827EB
S113106060E070E0842B952BA62BB72B80931E0198
S113107090931F01A0932001B0932101E091CC0132
S1131080F091CD01309739F067E070E08091340140
S11310909091350109950E94B304FF91EF91BF919E
S11310A0AF919F918F917F916F915F914F913F91FC
S11310B02F910F900FBE0F901F9018951F920F92B3
S11310C00FB60F9211242F933F934F935F936F9317
S11310D07F938F939F93AF93BF93EF93FF9320914D
S11310E01C0130911D014091840050918500C9017B
S11310F0032E000CAA0BBB0BDC019927882760E0A8
S113110070E0842B952BA62BB72B80931E01909314
S11311101F01A0932001B0932101B09B1BC04091FB
S1131120840050918500C9010196092E000CAA0B78
S1131130BB0BDC019927882760E070E0842B952B9A
S1131140A62BB72B80931E0190931F01A09320011F
S1131150B0932101E091CE01F091CF01309739F0A5
S113116068E070E0809136019091370109950E9402
S1131170B304FF91EF91BF91AF919F918F917F91B4
S11311806F915F914F913F912F910F900FBE0F90F0
S11311901F9018951F920F920FB60F9211242F9340
S11311A03F934F935F936F937F938F939F93AF93EB
S11311B0BF93EF93FF9320911C0130911D01409147
S11311C0840050918500C901032E000CAA0BBB0BAF
S11311D0DC019927882760E070E0842B952BA62BEF
S11311E0B72B80931E0190931F01A0932001B0930D
S11311F02101B09B1BC04091840050918500C9011E
S11312000196092E000CAA0BBB0BDC019927882739
S113121060E070E0842B952BA62BB72B80931E01E6
S113122090931F01A0932001B0932101E091D0017C
S1131230F091D101309739F069E070E08091380184
S11312409091390109950E94B304FF91EF91BF91E8
S1131250AF919F918F917F916F915F914F913F914A
S11312602F910F900FBE0F901F9018951F920F9201
S11312700FB60F9211242F933F934F935F936F9365
S11312807F938F939F93AF93BF93EF93FF9320919B
S11312901C0130911D014091840050918500C901C9
S11312A0032E000CAA0BBB0BDC019927882760E0F6
S11312B070E0842B952BA62BB72B80931E01909363
S11312C01F01A0932001B0932101B09B1BC040914A
S11312D0840050918500C9010196092E000CAA0BC7
S11312E0BB0BDC019927882760E070E0842B952BE9
S11312F0A62BB72B80931E0190931F01A09320016E
S1131300B0932101E091D201F091D301309739F0EB
S11313106AE070E080913A0190913B0109950E9446
S1131320B304FF91EF91BF91AF919F918F917F9102
S11313306F915F914F913F912F910F900FBE0F903E
S11313401F9018951F920F920FB60F9211242F938E
S11313503F934F935F936F937F938F939F93AF9339
S1131360BF93EF93FF9320911C0130911D01409195
S1131370840050918500C901032E000CAA0BBB0BFD
S1131380DC019927882760E070E0842B952BA62B3D
S1131390B72B80931E0190931F01A0932001B0935B
S11313A02101B09B1BC04091840050918500C9016C
S11313B00196092E000CAA0BBB0BDC019927882788
S11313C060E070E0842B952BA62BB72B80931E0135
S11313D090931F01A0932001B0932101E091D401C7
S11313E0F091D501309739F06BE070E080913C01C9
S11313F090913D0109950E94B304FF91EF91BF9133
S1131400AF919F918F917F916F915F914F913F9198
S11314102F910F900FBE0F901F9018951F920F924F
S11314200FB60F9211242F933F934F935F936F93B3
S11314307F938F939F93AF93BF93EF93FF932091E9
S11314401C0130911D014091840050918500C90117
S1131450032E000CAA0BBB0BDC019927882760E044
S113146070E0842B952BA62BB72B80931E019093B1
S11314701F01A0932001B0932101B09B1BC0409198
S1131480840050918500C9010196092E000CAA0B15
S1131490BB0BDC019927882760E070E0842B952B37
S11314A0A62BB72B80931E0190931F01A0932001BC
S11314B0B0932101E091D601F091D701309739F032
S11314C06CE070E080913E0190913F0109950E948B
S11314D0B304FF91EF91BF91AF919F918F917F9151
S11314E06F915F914F913F912F910F900FBE0F908D
S11314F01F9018951F920F920FB60F9211242F93DD
S11315003F934F935F936F937F938F939F93AF9387
S1131510BF93EF93FF9320911C0130911D014091E3
S1131520840050918500C901032E000CAA0BBB0B4B
S1131530DC019927882760E070E0842B952BA62B8B
S1131540B72B80931E0190931F01A0932001B093A9
S11315502101B09B1BC04091840050918500C901BA
S11315600196092E000CAA0BBB0BDC0199278827D6
S113157060E070E0842B952BA62BB72B80931E0183
S113158090931F01A0932001B0932101E091D80111
S1131590F091D901309739F06DE070E0809140010D
S11315A09091410109950E94B304FF91EF91BF917D
S11315B0AF919F918F917F916F915F914F913F91E7
S11315C02F910F900FBE0F901F9018951F920F929E
S11315D00FB60F9211242F933F934F935F936F9302
S11315E07F938F939F93AF93BF93EF93FF93209138
S11315F01C0130911D014091840050918500C90166
S1131600032E000CAA0BBB0BDC019927882760E092
S113161070E0842B952BA62BB72B80931E019093FF
S11316201F01A0932001B0932101B09B1BC04091E6
S1131630840050918500C9010196092E000CAA0B63
S1131640BB0BDC019927882760E070E0842B952B85
S1131650A62BB72B80931E0190931F01A09320010A
S1131660B0932101E091DA01F091DB01309739F078
S11316706EE070E0809142019091430109950E94CF
S1131680B304FF91EF91BF91AF919F918F917F919F
S11316906F915F914F913F912F910F900FBE0F90DB
S11316A01F9018951F920F920FB60F9211242F932B
S11316B03F934F935F936F937F938F939F93AF93D6
S11316C0BF93EF93FF9320911C0130911D01409132
S11316D0840050918500C901032E000CAA0BBB0B9A
S11316E0DC019927882760E070E0842B952BA62BDA
S11316F0B72B80931E0190931F01A0932001B093F8
S11317002101B09B1BC04091840050918500C90108
S11317100196092E000CAA0BBB0BDC019927882724
S113172060E070E0842B952BA62BB72B80931E01D1
S113173090931F01A0932001B0932101E091DC015B
S1131740F091DD01309739F06FE070E08091440151
S11317509091450109950E94B304FF91EF91BF91C7
S1131760AF919F918F917F916F915F914F913F9135
S11317702F910F900FBE0F901F9018951F920F92EC
S11317800FB60F9211242F933F934F935F936F9350
S11317907F938F939F93AF93BF93EF93FF93209186
S11317A01C0130911D014091840050918500C901B4
S11317B0032E000CAA0BBB0BDC019927882760E0E1
S11317C070E0842B952BA62BB72B80931E0190934E
S11317D01F01A0932001B0932101B09B1BC0409135
S11317E0840050918500C9010196092E000CAA0BB2
S11317F0BB0BDC019927882760E070E0842B952BD4
S1131800A62BB72B80931E0190931F01A093200158
S1131810B0932101E091DE01F091DF01309739F0BE
S113182060E170E0809146019091470109950E9422
S1131830B304FF91EF91BF91AF919F918F917F91ED
S11318406F915F914F913F912F910F900FBE0F9029
S11318501F9018951F920F920FB60F9211242F9379
S11318603F934F935F936F937F938F939F93AF9324
S1131870BF93EF93FF9320911C0130911D01409180
S1131880840050918500C901032E000CAA0BBB0BE8
S1131890DC019927882760E070E0842B952BA62B28
S11318A0B72B80931E0190931F01A0932001B09346
S11318B02101B09B1BC04091840050918500C90157
S11318C00196092E000CAA0BBB0BDC019927882773
S11318D060E070E0842B952BA62BB72B80931E0120
S11318E090931F01A0932001B0932101E091E001A6
S11318F0F091E101309739F061E170E080914801A5
S11319009091490109950E94B304FF91EF91BF9111
S1131910AF919F918F917F916F915F914F913F9183
S11319202F910F900FBE0F901F9018951F920F923A
S11319300FB60F9211242F933F934F935F936F939E
S11319407F938F939F93EF93FF9380911C019091CA
S11319501D01019690931D0180931C01E0912201C9
S1131960F0912301309739F042815381648175816C
S113197086179707A1F080916F008D7F80936F0089
S1131980FF91EF919F918F917F916F915F914F9113
S11319903F912F910F900FBE0F901F901895CA0181
S11319A02091840030918500421B530B4130510536
S11319B051F0909389008093880080916F00826039
S11319C080936F00DDCF8091840090918500019613
S11319D0F0CF1F920F920FB60F9211248F929F9205
S11319E0AF92BF92CF92DF92EF92FF920F931F9329
S11319F02F933F934F935F936F937F938F939F9313
S1131A00AF93BF93CF93DF93EF93FF93E0901C01C9
S1131A10F0901D018091840090918500B09998C048
S1131A2047010F2C000CAA08BB08540199248824F0
S1131A30A0E0B0E0882A992AAA2ABB2AC0912201F0
S1131A40D09123018091240190912501209709F4DC
S1131A503FC04A815B816C817D818A019B010819A9
S1131A6019092A093B0910161106120613060CF46B
S1131A7040C0D880C9800097B9F10E811F812885A4
S1131A803985FC01468157816085718504171507E6
S1131A90260737074CF1DC010AC04681578160856F
S1131AA071850417150726073707DCF0DF01ED9170
S1131AB0FC911197309789F719821882CD93DC93A2
S1131AC0382F292FCD2DDC2D832F922F209709F627
S1131AD010922301109222019093250180932401F6
S1131AE013C0F983E883EACF998388833C2F2D2F91
S1131AF0E9CFD0932301C0932201909325018093D1
S1131B002401E616F706D9F180916F008D7F80934A
S1131B106F000E94B304FF91EF91DF91CF91BF91C9
S1131B20AF919F918F917F916F915F914F913F9171
S1131B302F911F910F91FF90EF90DF90CF90BF9066
S1131B40AF909F908F900F900FBE0F901F9018959D
S1131B50209184003091850047018FEF881A980AFC
S1131B60092C000CAA08BB08D4019927882749012D
S1131B70A12CB12C882A992AAA2ABB2A5FCFCA0190
S1131B802091840030918500421B530B4130510554
S1131B9051F0909389008093880080916F00826057
S1131BA080936F00B6CF8091840090918500019658
S1131BB0F0CF3F924F925F926F927F928F929F925B
S1131BC0AF92BF92CF92DF92EF92FF920F931F9347
S1131BD0CF93DF93EFB7E0783E2EF894C0910601DF
S1131BE0D0910701209709F452C1E881F981F0935B
S1131BF00701E09306011B870A87FD86EC86DF86D2
S1131C00CE86332009F46FC0E0910001F091010108
S1131C100280F381E02DC280D380E480F580C60E7B
S1131C20D71EE81EF91ECA82DB82EC82FD821216E0
S1131C301306140615060CF0F8C0DA01C9018C016C
S1131C409D010C0D1D1D2E1D3F1D0E831F83288716
S1131C50398780911C0190911D01609184007091DD
S1131C608500B09949C02C01092E000C660877083C
S1131C705201992488242B01612C712C482859285D
S1131C806A287B28B701A601441955096609770912
S1131C9014161506160617060CF068C0A09122014A
S1131CA0B0912301109709F4DCC012960D911D9197
S1131CB02D913C911597C016D106E206F3065CF40B
S1131CC0D0C04281538164817581C416D506E6066D
S1131CD0F7064CF1DF01ED91FC911197309789F7EC
S1131CE01982188222C0C0901E01D0901F01E0907A
S1131CF02001F090210193CFE0918400F0918500C0
S1131D002C014FEF441A540A052C000C660877087E
S1131D10B201552744272F01612C712C442A552ADE
S1131D20662A772AAFCFF983E883CD93DC938217B1
S1131D30930709F47FC080916F008D7F80936F00BB
S1131D40332009F07894CE01DF91CF911F910F9148
S1131D50FF90EF90DF90CF90BF90AF909F908F90C7
S1131D607F906F905F904F903F900895A0912401D1
S1131D70B0912501109709F483C01696CD90DD909B
S1131D80ED90FC9019970C151D052E053F0564F484
S1131D9077C0C680D780E084F1840C151D052E051C
S1131DA03F050CF45BC0DF01ED91FC911197309776
S1131DB081F719821882CD93DC93332021F280912C
S1131DC0040190910501009709F4BCCFE091020150
S1131DD0F0910301209124013091250102811381A6
S1131DE0D90116964D915D916D917C911997D80109
S1131DF016960D911D912D913C911997401B510BF5
S1131E00620B730B77FF9ECFDC012D913C911197F0
S1131E103093050120930401ED93FC939093030107
S1131E20809302010E9493048DCF8FEF9FEFAFEF59
S1131E30BFE705CFC8014091840050918500041B81
S1131E40150B01301105B1F090938900809388003F
S1131E5080916F00826080936F0072CFF983E88372
S1131E60AACFB983A883D0932301C09322019701F9
S1131E7086015DCF80918400909185000196E4CF26
S1131E80B983A883D0932501C093240196CF0E94DF
S1131E90F304CF92DF92EF92FF920F931F93CF93AD
S1131EA0DF93EC017B016A011FB71078F894A881D5
S1131EB0B981109719F462C0A081B1811496ED9193
S1131EC0FC9115973097C1F72091000130910101E1
S1131ED02A173B0709F44CC01123A1F18A819B8185
S1131EE0009719F0FC01158214823B832A83F901BF
S1131EF0D583C483CD010E949304E0910001F09145
S1131F00010182819381892B09F441C0F983E8831B
S1131F108A819B81019709F07894B601CE01F7017B
S1131F200995F82E092F8FB7F894198218828A819F
S1131F309B8182309105A0F4112379F078948F2D40
S1131F40902F02C08FEF9FEFDF91CF911F910F91E0
S1131F50FF90EF90DF90CF9008958F2D902FF4CFC6
S1131F601B821A82FC01158214820E949304E4CF1E
S1131F70112341F378948FEF9FEFE6CF8091000116
S1131F809091010199838883112339F2C1CF789408
S1131F9080E090E0D9CFC0912401D0912501E09157
S1131FA00001F0910101209709F46EC088819981A4
S1131FB09093250180932401D383C28378944E8522
S1131FC05F856C857D858A859B850E94490F8FB7C7
S1131FD0F894809106019091070199838883D093A6
S1131FE00701C0930601E0900201F0900301F7019C
S1131FF0A081B18112968D919C911397C091240177
S1132000D09125012097A9F0009749F24E815F8174
S113201068857985FC010681178120853185401BFF
S1132020510B620B730B14161506160617060CF0EB
S1132030B6CFB0930301A093020180910401909163
S11320400501F70191838083F0920501E092040178
S11320501496ED91FC911597309741F0A081B181D0
S11320601496ED91FC9115973097C1F7CD010E941C
S11320709304C0912401D0912501E0910001F091D5
S11320800101209709F092CF0E94F3044231B8F481
S11320902FB7F89450E0440F551FFA01EA5DFE4F44
S11320A091838083FA01E254FE4F7183608341E09F
S11320B050E0FC015383428327FF01C078940895C4
S11320C08C017B016A018FB7F8940E9428047894EC
S11320D0E114F10441F020E030E0A90160E070E097
S11320E0CB010E94D90D8FB7F8940E94B304789461
S11320F081E083BF8895FDCF052E97FB1EF40094E5
S11321000E94931057FD07D00E949B1007FC03D038
S11321104EF40C94931050954095309521953F4F73
S11321204F4F5F4F089590958095709561957F4FBF
S11321308F4F9F4F0895A1E21A2EAA1BBB1BFD01CE
S11321400DC0AA1FBB1FEE1FFF1FA217B307E40792
S1132150F50720F0A21BB30BE40BF50B661F771FEA
S1132160881F991F1A9469F76095709580959095CA
S11321709B01AC01BD01CF010895DC012D923D927C
S11321804D925D926D927D928D929D92AD92BD9293
S1132190CD92DD92ED92FD920D931D93CD93DD933F
S11321A0FF91EF918DB78D938EB78D938FB78D93EC
S11321B0ED93FD93882799270994DC01CB018130A5
S11321C09105811D2D903D904D905D906D907D9079
S11321D08D909D90AD90BD90CD90DD90ED90FD9053
S11321E00D911D91CD91DD91ED91FD910D90F8949E
S11321F0FEBF0FBEEDBFED91FD910994F894FFCFA2
S1132200E201E2014A01FF0151151001111E111BE7
S10F2210500B411B411F1101511F510BC9
S9030000FC
